:1000000078FFE4B8200118F6D8F99000007F007E50
:1000100007E4F0A3DFFCDEFA7581200226E89001F8
:10002000CFE0248F601C24F37005122BF98013900D
:1000300001CFE0FF122BD37F03122954EF60037F1F
:1000400002227F0422122B422200000222AFEFD3B1
:100050009403500D121222F583E5822D1210CEE486
:10006000F0220002285D75F002121B10E0FCA3E0F4
:10007000FD75F088EFA42434F582E5F03400F583B3
:10008000EE75F002021B10EF2448FFEE34FEFE7CFA
:10009000007D0A121A2F7D32121A41EF24B8FFEEAA
:1000A0003401FEEB75F002A42416F582E5F034006D
:1000B000F583229003B6E0FF9003B5E0FE75F0886B
:1000C000A42497F582E5F03400F583E5822FF582CC
:1000D000E43583F583229003B7E0FEA3E0FF9003AD
:1000E000B5E0FD75F088A4246AF582E5F03400F5EA
:1000F0008322E0FCA3E0FDEF75F088A42446F5829E
:10010000E5F0340022FDEC541FF0EDA3F0EB75F0A8
:1001100002A42410F582E5F03400F5832275F00284
:10012000EBA4240AF582E5F03400F583E0FCA3E0BB
:10013000FDEB75F002A42404F582E5F03400F583AC
:100140002275F004121B10E0F8A3E0F9A3E0FAA373
:10015000E0FB900290E0FCA3E0FDA3E0FEA3E02220
:10016000F583E493FC740193FD75F002EFA422C3C0
:100170009DFFEE9CFEE075F088A42458F582E5F022
:100180003400F5832275F088A4247CF582E5F034F0
:1001900000F583EC75F002021B109003B5E0FF75CB
:1001A000F088A42422F582E5F03400F58322F0A340
:1001B000F0A3F0A3F0A3F0A3F0A3F0A3229003B563
:1001C000E0FF75F088A42434F582E5F03400F5836F
:1001D0002224C0F582E5F03401F583ECF0A3EDF0C4
:1001E000EF25E02275F002EBA4240AF582E5F03455
:1001F00000F583229003B5E0FD75F088A4247CF51A
:1002000082E5F03400F58322C39BFBEE9AFAED9968
:10021000F9EC98F8E493FE740193FFE4FCFDC3024B
:100220001AC2EF75F009A42494F582E4340222EF97
:1002300075F009A42409F582E43402229003B6E0A3
:10024000FF9003B5E075F088A4248EF582E5F034C4
:100250000022E4F075F088EEA424A0F582E5F034E5
:1002600000229003B9E0FDEF9D7480F86E98229013
:1002700003B5E0FFA3E0FD2275F088EEA424A9F504
:1002800082E5F0340022E0FEA3E0FFD32274D32BFA
:10029000F582E43401F58322F583E0FCA3E0FD75EB
:1002A000F00222E0FF25E024A9F582E43403F5837F
:1002B00022EB25E0248FF582E43422F58322E0242A
:1002C0008EF582E43400F583E0640122EF25E0241A
:1002D000AFF582E43403F58322241CF582E5F03483
:1002E00000F583ECF0A3EDF00F22E4F0A3F075F03D
:1002F0008822E0FCA3E0FD75F08822E0FEA3E0C3C5
:100300009DFFEE9CFE22EE8FF0121A9675F088ED9E
:1003100022C3EF94F6EE6480947F22FE7C007D0A77
:10032000121A2F7D1E121A41EF2224BAF582E5F02F
:1003300034012224C6F582E5F034012225E025E0CF
:1003400024DDF582E43401F5832275F024A424AF82
:10035000F582E43402F5832275F024A42424F58286
:10036000E43402F583229003B5E0FFA3E0FD22A46C
:100370002497F582E5F03400F583E58222E0FF90D2
:1003800003A9E0FEEFC8EEC80822F582E43402F5C6
:100390008322940AEE6480948022902EC6F0902EE0
:1003A000C57401F022EDF0CBEFCBEBD394032275B3
:1003B000F004121B10021AD3902EC97428F022ECFC
:1003C000F0A3EDF09003B5E0229003A8E004F02242
:1003D000ECF0A3EDF09003A7E0229001D0E0FE75D1
:1003E000F002A4229003B5EFF0A3EDF09003B974EE
:1003F00003F0ED70037402F09003B5E0FF1210F803
:10040000F583C083C0829003B6E0FED082D0831211
:1004100010661212FB9003B7F0A3EFF0122D1BC36E
:1004200012126240030214D91210D6C083C0829007
:1004300003B6E0FCD082D083121081121306121092
:10044000E6EC12108112128612139240241210DE72
:10045000C083C0829003B6E0FCD082D083121081AA
:10046000E4F0A3F0ED1210F8121191E475F00180A0
:100470002B12131150299003B5E0FF1210E3C08333
:10048000C0829003B6E0FED082D083121081E4F0E7
:10049000A3F01210F712107E74FFF5F0121A9612E4
:1004A000126F12104E12126F122AFD12126F1229C1
:1004B00004EF70030216059003B6E0FF9003B5E069
:1004C000FE1212451210C9E4F0EF60030216051285
:1004D0001278F583E4F00216059003B6E0703EA3AF
:1004E000E0FEA3E0FF122D1B9003B9E02402FDE41F
:1004F00033FCD3EF9DEC6480F8EE648098400912E1
:10050000123C1210C97401F012163ED3121262404E
:100510002C9003B5E075F08812127C801B12163EF9
:100520009003B9E0FDD3121267401212123CF5831A
:10053000E5822FF582E43583F5837401F01210D63D
:10054000C083C0829003B6E0FCD082D083121081B9
:100550001213061210E61211931212869464EE64BE
:1005600080948040231210DEC083C0829003B6E0E6
:10057000FCD082D0831210811212EAED1210FB120D
:100580001191E475F0018031C3EF949CEE64809486
:100590007F50299003B5E0FF1210E3C083C0829022
:1005A00003B6E0FED082D083121081E4F0A3F012F3
:1005B00010F712107E74FFF5F0121A96C39003B76D
:1005C000E064809480503212126F122AC412126FAB
:1005D0001228B4EF60299003B51211C0C083C08205
:1005E0009003B6E0FED082D0831210811210F21276
:1005F000107EECF0A3EDF0800612126F12104E1276
:10060000126F122CDA9003B5E0FF1210F8F583C0D8
:1006100083C0829003B6E0FED082D083121066E0E1
:10062000FEA3E09003B512116FC083C0829003B6A1
:10063000E0D082D083121081EEF0A3EFF02290037D
:10064000B7E0FEA3E0FF122D1B229003B5EFF0A34D
:10065000EDF09003B97407F0ED603F90008EE06418
:1006600001700280089003B61212BE702D12119A0A
:10067000C083C0829003B6E0FED082D083121066A1
:100680001213BF1211F9C083C0829003B6E0D0826A
:10069000D083121081E4F0A3F0229003B51211C0B0
:1006A000C083C0829003B6E0FED082D08312108156
:1006B0001212F2EFA42422F582E5F0340012107E2B
:1006C0001212FB9003B7F0A3EFF0122D1B9003B9A9
:1006D000E0FDC3121267400302179E1210B3E064DC
:1006E00001703775F088EE121179EF121194E0FE67
:1006F000A3E0C3941EEE6480948040030217E412CA
:10070000119AC083C0829003B6E0FED082D08312DB
:100710001066ECF0A3EDF00217E49003B7E0FEA33F
:10072000E0FF1211F4C083C0829003B6E0FCD082D7
:10073000D083121081EE8FF0121A96ED12118512ED
:10074000128612139240291211F4C083C0829003C2
:10075000B6E0FCD082D0831210811212EAEDA424FC
:1007600034F582E5F03400121191E475F00180282F
:10077000121311506F9003B5E0FF1211F9C083C03E
:10078000829003B6E0FED082D083121081E4F0A301
:10079000F012107174FFF5F0121A960217E412119C
:1007A0009AC083C0829003B6E0FED082D08312103C
:1007B000661213BFFF121176C083C0829003B6E0A9
:1007C000FED082D083121081E0FCA3E0C3941EEC23
:1007D00064809480400E75F088EF12136F2E121013
:1007E000CE7401F01210B3E064017028121254129A
:1007F00010C9E0041212531210C9E0D3940540143A
:100800009003B6E0FF75F088EE1210C0121252127B
:1008100010C9E4F022CBEFCB1211E4E0FEA3E0FF1D
:10082000121131E0FCA3E0FDC39FEC9E50030218BF
:10083000C4E42DFFEC3404FE1211E4E0FCA3E0FD5F
:10084000C3EF9DFFEE9CFE12110DEEF0A3EFF01230
:1008500011E4E0FEA3E0FF121131E0FCA3E0C39F2E
:10086000FFEC9E1210A2EEF0A3EFF01212B1E4938F
:10087000FE740193FF1210A3E0FCA3E0FDD39FECF4
:100880009E40241212B1E493FE740193FFC3ED9FC6
:10089000FFEC9EC313FEEF13FF1212B17401932FEE
:1008A000FFE4933EFE80131210A3E0FEA3E0FF7C62
:1008B000007D63121A2F0D121A411210A3EEF0A33D
:1008C000EFF08038121131E0FEA3E0FF1211E4E0F6
:1008D000FCA3E0C39FEC9EC3940475F002EB5010A0
:1008E0001210A7E4F012110B7404F0A3E4F0800CD2
:1008F0001210A7E4F012110BE4F0A3F0EB64017006
:10090000571210A312128694B8EE940140081210E8
:1009100087EEF0A3EFF01210A3E0FCA3E090032B0E
:10092000121105121286940EEE94064019EF24F26D
:10093000FFEE34F912131B240EFFEE3406FE1211E3
:100940000DEEF0A3EFF012110DE0FCA3E0FDEC546E
:100950001F90032FF0EDA3F0EB640270571210A369
:1009600012128694B8EE94014008121087EEF0A39C
:10097000EFF01210A3E0FCA3E090032D121105127A
:10098000128694FAEE94054019EF2406FFEE34FA2D
:1009900012131B24FAFFEE3405FE12110DEEF0A324
:1009A000EFF012110DE0FCA3E0FDEC541F900331B9
:1009B000F0EDA3F022BB010689828A83E022500277
:1009C000E722BBFE02E32289828A83E49322BB01F1
:1009D0000CE58229F582E5833AF583E0225006E9A9
:1009E0002582F8E622BBFE06E92582F8E222E582AE
:1009F00029F582E5833AF583E49322BB01068982D7
:100A00008A83F0225002F722BBFE01F322F8BB01D9
:100A10000DE58229F582E5833AF583E8F022500658
:100A2000E92582C8F622BBFE05E92582C8F222EF3D
:100A30008DF0A4A8F0CF8CF0A428CE8DF0A42EFECB
:100A400022BC000BBE0029EF8DF084FFADF022E444
:100A5000CCF875F008EF2FFFEE33FEEC33FCEE9D83
:100A6000EC984005FCEE9DFE0FD5F0E9E4CEFD22AA
:100A7000EDF8F5F0EE8420D21CFEADF075F008EF35
:100A80002FFFED33FD4007985006D5F0F222C398B2
:100A9000FD0FD5F0EA22C5F0F8A3E028F0C5F0F884
:100AA000E582158270021583E038F022A3F8E0C5D4
:100AB000F025F0F0E582158270021583E0C838F069
:100AC000E822EB9FF5F0EA9E42F0E99D42F0E89CB7
:100AD00045F022ECF0A3EDF0A3EEF0A3EFF022A896
:100AE000828583F0D083D082121AF6121AF6121A77
:100AF000F6121AF6E473E493A3C583C5F0C583C860
:100B0000C582C8F0A3C583C5F0C583C8C582C82205
:100B1000A42582F582E5F03583F58322EF4E60123D
:100B2000EF60010EEDBB010B89828A83F0A3DFFC2D
:100B3000DEFA2289F05007F709DFFCA9F022BBFE9C
:100B4000FCF309DFFCA9F0229003B5EFF0A3EDF070
:100B50009003B97407F0ED70037404F090008EE018
:100B60006401700280089003B61212BE7038121130
:100B7000BDC083C0829003B6E0FED082D083121045
:100B8000811210F212107EECF0A3EDF09003B5127A
:100B90001175C083C0829003B6E0D082D08312105A
:100BA00081E4F0A3F0229003B5E0FF1210F8F58382
:100BB000C083C0829003B6E0FED082D0831210665C
:100BC0001212FB9003B7F0A3EFF0122D1B9003B9A4
:100BD000E0FDC31212674003021C669003B7E0FEFB
:100BE000A3E0FF9003B51210E1C083C0829003B66A
:100BF000E0FCD082D0831210811213061210E6128C
:100C0000119312128612139240269003B51210E12E
:100C1000C083C0829003B6E0FCD082D083121081E2
:100C20001212EAED1210FB121191E475F001802B03
:100C300012131150299003B5E0FF1210E3C083C0D6
:100C4000829003B6E0FED082D083121081E4F0A33C
:100C5000F01210F712107E74FFF5F0121A961213AC
:100C60006612104E8038C39003B7E06480948050C1
:100C70002D121366122AC41213661228B4EF601ED6
:100C80001211BDC083C0829003B6E0FED082D08333
:100C90001210811210F212107EECF0A3EDF090030E
:100CA000B5E0FF1210F8F583C083C0829003B6E070
:100CB000FED082D083121066E0FEA3E09003B5124E
:100CC000116FC083C0829003B6E0D082D08312102F
:100CD00081EEF0A3EFF022E49003A8F09003A8E0E7
:100CE000FFC394094003021E5AEF902EC87014E00F
:100CF000545FF0A3746AF0902EC3744AF0A3740199
:100D0000F08012E044F0F0A3742AF0902EC37470C7
:100D1000F0A3740AF09003A8E090215093902ECA9B
:100D2000F0E49003A7F0900003E0FF9003A7E0FE3B
:100D3000C39F4003021E5174062E12138AE0FF90D7
:100D400003A9F0E4F5E2EFC39408503A74151213C6
:100D50009AC083C08212137D8002C333D8FCD08234
:100D6000D083F0902ECD7401F0C083C082E0FFC824
:100D7000EEC8088002C333D8FCD082D083F0902E16
:100D8000C074C1F080579003A9E024F8F0741612E3
:100D9000139AC083C08212137D8002C333D8FCD063
:100DA00082D083F0902ECE7401F0C083C082E0FF29
:100DB000C8EEC8088002C333D8FCD082D083F0EEDE
:100DC000B405031213B8EEB40606902EC9742DF0C4
:100DD000EEB407031213B8902EC074C2F0E4FF9073
:100DE0000000742EF0A3E4F09003A7E02406121391
:100DF0008AE09003A9F0E5E220E2050FEFB4C8DF36
:100E00009003A9E0FD75F002A4FFAEF0900001E0B0
:100E10002FF0900000E03EF0ED90217F93FF9000D6
:100E200000E475F002121AAC85F082F5831212F21A
:100E3000EF1211A2C083C0829003A8E0D082D083B9
:100E4000121081ECF0A3EDF09003A7E004F0021D76
:100E5000269003A8E004F0021CDC9001CC7401F0A1
:100E6000229001D2E024FE601B1460211470030262
:100E70001F4224036003021FE09001D27402F0E4D9
:100E8000900205F012259B9001D27403F0121CD73A
:100E90009001CCE07003021F20900205E004F0E412
:100EA0009003A6F0900003E0FF9003A6E0C39F50DC
:100EB0006FE4FF9003A6E0FE12119F75F002EF129F
:100EC0001B101212F2EE1210FBF58375F002EF12F6
:100ED0001B101212E3EFB409DA9003A6E0FF121020
:100EE000A4E4F0A3F0EF12110E7404F0A3E4F0EF09
:100EF000B40110E490032BF0A3F090032F7404F0DE
:100F0000E4A3F0EFB40210E490032DF0A3F09003FB
:100F1000317404F0E4A3F09003A6E004F0021EA4F0
:100F2000900205E0C394035003021FE09000027496
:100F30007EF0E49001CDF0900205F09001D27404AF
:100F4000F022121CD79001CCE07003021FE0121FA8
:100F5000E1E49003A6F0900003E0FE9003A6E0FF1A
:100F6000C39E5016122A88122A3D9003A6E0FF1253
:100F700018159003A6E004F080DC122BA512262899
:100F800012101E9001D2EFF064047054900002E041
:100F9000FFD394104015EF647E7045900321E04428
:100FA00008F0900205E06038E4802A900321E054C4
:100FB000F0F0900002E0B40107900321E04401F05A
:100FC000900002E0B40207900321E04402F0900296
:100FD00005E0700C04F0C28A000000000000D28A14
:100FE00022E49003A8F09003A8E0FDC394095023E5
:100FF000E0FF75F0021211A2E0FAA3E0FB75F00227
:10100000EF1211C5EAF0A3EBF0E4FF1213E41213A0
:10101000C980D3E49003A7F0900003E0FF9003A7FA
:10102000E0C39F400302214A1212A3E4F0A3F0128E
:1010300012CCE4F0A3F0EF7003022122E49003A8A5
:10104000F09003A8E0FDC3940950189003A7E0FFB7
:1010500012164A9003A7E0FFA3E0FD121B481213EB
:10106000C980DEE49003A8F09003A8E0FFC39409D0
:101070004003022122748E2F1212C160109003A728
:10108000E075F08812127CF583E0B401239003A789
:10109000E0FF1211761212F2EF121179C083C082B2
:1010A0009003A8E0D082D083121081ECF0A3EDF081
:1010B0009003A8E060669003A7E0FF1210F8F583A4
:1010C000C083C0829003A8E0FED082D0831210813A
:1010D000E0FCA3E0FD1212CCEC8DF0121A96900306
:1010E000A7E0FF75F088A42458F582E5F0340012DB
:1010F000107E1210F2F583C083C0829003A8E0D066
:1011000082D083121081E0FEA3E02DFFEE3CFE9022
:1011100003A7E01212A5EE8FF0121A961213C9025D
:1011200020689003A71212A3E0FCA3E0FDEF1211C8
:10113000321213D0FF1212CDE0FCA3E0121168129C
:1011400011E91213D004F0022018E49001CCF0222F
:101150003F3F3F3F3F3F3F3F3F00320032177075F8
:1011600030001E0032000A000F0064000A000A006E
:101170000000000000000000000000000101010D5F
:101180000E0F030405060708090A0B0C00010200F4
:101190003700370037003700370037003700370097
:1011A0003700370037003700370037003700370087
:1011B00046004600460046004600460046004600FF
:1011C00046004600460046004600460046004600EF
:1011D0001E001E001E001E001E001E001E001E001F
:1011E0001E001E001E001E001E001E001E001E000F
:1011F0002D002D002D002D002D002D002D002D0087
:101200002D002D002D002D002D002D002D002D0076
:101210005A005A005A005A005A005A005A005A00FE
:101220005A005A005A005A005A005A005A005A00EE
:10123000640064006400640064006400640064008E
:10124000640064006400640064006400640064007E
:101250004100410041004100410041004100410086
:101260004100410041004100410041004100410076
:101270002D002D002D002D002D002D002D002D0006
:101280002D002D002D002D002D002D002D002D00F6
:10129000FA00FA00FA00FA00FA00FA00FA00FA007E
:1012A000FA00FA00FA00FA00FA00FA00FA00FAC0AE
:1012B000E0C083C082C0D0E8C0E0E9C0E0EAC0E09E
:1012C000EBC0E0EFC0E0D2AFE5DB30E415E5DB30AA
:1012D000E1028028900320E5DFF09003A1E4F00212
:1012E000237EE5DB30E50812104590031D802BE5D9
:1012F000DB30E119E5DB20E00302237E9003A3123B
:101300002B39122B521219CEF5DF02237E9003A146
:10131000E0700DA3E5DFF09003A17401F002237EDD
:101320009003A2E090272D93FFB4FF0E900320E5D9
:10133000DFF09003A2E004F0803EEF640F9003A37F
:10134000702B122B399003A2E0FF122B66540F1260
:1013500019FB9003A3122B399003A2E0FF04F012B3
:101360002B66FFE5DF54F04F1219FB800B122B396F
:10137000122B52E5DF121A0D90031FE004F075DB0B
:10138000FFD0E0FFD0E0FBD0E0FAD0E0F9D0E0F809
:10139000D0D0D082D083D0E032900334E0FE64100D
:1013A000704EFF900003E0FDEFC39D400302244018
:1013B000EF25E0242FF582E434221211601211D1BE
:1013C000240FF582E4342212116012132A1211D96B
:1013D000244FF582E434221211601213331211D912
:1013E000246FF582E434221211601212D90223A371
:1013F000EE6420705DFF900003E0FEEFC39E50405E
:10140000EF25E024AFF582E434211211601211D1EE
:10141000248FF582E4342112116012132A1211D99B
:1014200024CFF582E434211211601213331211D942
:1014300024EFF582E434211211601212D90223F64E
:101440009001BCA3E0900325F09001BEA3E09003BF
:1014500026F022E49003A8F0FF9003A7F0EF1460B9
:101460001E14603514604C14605B24047074900387
:10147000A97401F0A3742FF0A37458F00224DC12B5
:101480002B369000011219CEFED3941F4003122B6D
:101490005F1219B56E704B8043122B36900002120A
:1014A00019CEFED394064003122B5F1219B56E704D
:1014B000318029122B369000031219CEFE1219B575
:1014C0006E701F8017122B369000041219CEFE6426
:1014D0008B6003122B5F1219B56E70069003A7E0A4
:1014E00004F00FEF6405600302245D9003A7E0B4ED
:1014F0000504A37401F09003A8E0FD600790033594
:10150000E0547FF0CFEDCF22758A50538AEF9003DD
:10151000BF7411F09003BD7422F09003C07433F0D7
:1015200075997F759A80E4FFFEC29620970AD2963D
:10153000309705E49003BFF00FBF00010EEF640A7F
:101540004E70E675993F759AC0E4FEFF20970690AD
:1015500003BD7427F020960C9003BD7426F02097ED
:10156000037428F00FBF00010EEF640A4E70DDE433
:10157000F5AD75AEF075AF09F5AC7589FF75913FA6
:1015800075991FF59675931FF59BF595F592F59A4C
:1015900075800CD28A9003BE04F0227E017FCD7D3F
:1015A000007B017A007904121B1C12280590033479
:1015B0007410F0122399E4FE900003E0FFEEC39F45
:1015C0005056E4FC75F088EE1210E61211931212D8
:1015D000EAEE121248F583E5822C1210CEE4F0EE0A
:1015E0001211851212EAEE12136F2C1210CE121283
:1015F00052F583E5822C1210CEE4F0CFEECFCDEC85
:10160000CD12104E122CDA0CEC640970B71212785D
:10161000F583E4F00E0225B89001CF747EF09000BF
:1016200002F0E49001CEF022900002E0FFC394109B
:101630005024A3E0FEEFC39E501C900002E075F022
:1016400002A4121333121298EF1210A7E0FEA3E0C7
:10165000C39DEE9C50567F7E9001CEE07029121300
:10166000DA24C0F582E5F03401121298EE1210A7C8
:10167000E0FAA3E0C39DEA9C40299001D0E0FF90EE
:1016800001CE7401F0801C1213DA12132A12129880
:10169000EE1210A7E0FAA3E0C39DEA9C400590017A
:1016A000D0E0FF9001CFE06F6002EFF022022B6FDD
:1016B000E493A3F8E493A34003F68001F208DFF477
:1016C0008029E493A3F85407240CC8C333C4540FEF
:1016D0004420C8834004F456800146F6DFE4800BC2
:1016E0000102040810204080902C1FE47E019360CA
:1016F000BCA3FF543F30E509541FFEE493A36001EF
:101700000ECF54C025E060A840B8E493A3FAE49358
:10171000A3F8E493A3C8C582C8CAC583CAF0A3C806
:10172000C582C8CAC583CADFE9DEE780BE0FFFFFF6
:1017300000000000000000FFFFFFFFFFFFFFFFFFB2
:101740000000000000000000000000000000000099
:101750000000000000000000000000000000000089
:101760000000000000000000000000000000000079
:101770000000000000000000000000000000000069
:101780000000000000000000000000000000000059
:101790000000000000000000000000000000000049
:1017A00000000000000000000000000000902EC0BB
:1017B000E4F0902ECB74F7F0902F58E0540F24F003
:1017C000902EC8F0902ECC7448F01213B8A3743F3A
:1017D000F0902E4074811211AEF0A3041211AE14D9
:1017E000F0902EC67414F0902EC17490F0A3740182
:1017F000F0A37470F0A3740AF043E310122C459028
:101800000003EFF0227E007F807D007B017A037968
:1018100021121B1C9003217408F09003237406F01E
:1018200090033374ABF09003357488F09003BFE0FD
:10183000900327F09003BDE0900328F09003C0E0F0
:10184000900329F012245390031EE06008900322B5
:101850007407F08005E4900322F00229F2C0E0C092
:10186000F0C083C082C0D0E8C0E0ECC0E0EDC0E0D2
:10187000EEC0E0EFC0E0D2AF9001D1E004F0C3943D
:101880000A4017E4F01211522401FFE43EFEE43D49
:10189000FDE43CFC900290121AD3D0E0FFD0E0FEB1
:1018A000D0E0FDD0E0FCD0E0F8D0D0D082D083D022
:1018B000F0D0E0329003BBEDF09003BAEFF0A3E07C
:1018C000FE121222F583E5822E1210CEE0603290D5
:1018D00003BAE012134AC083C0829003BBE0D082F7
:1018E000D08312114190216312120840149003BB5F
:1018F000E0FF9003BAE01212231210C9E4F07F0156
:10190000227F00229003BBEDF09003BAEFF0A3E03A
:10191000FE12122FF583E5822E1210CEE060329077
:1019200003BAE0121358C083C0829003BBE0D08298
:10193000D08312114190216512120840149003BB0C
:10194000E0FF9003BAE01212301210C9E4F07F01F8
:10195000227F00229003A7EFF0C3940A5042E0FFD9
:1019600024D3121290E06038EF12133C121147C3D7
:101970009BFBEE9AFAED99F9EC98F89003A7E02515
:10198000E02459F582E43421F583121214400E90BC
:1019900003A7E024D3121290E4F07F01227F0022FB
:1019A0007F00229003A67410F0A3E4F0A3743FF02C
:1019B000A374FFF0E4FDFCF99003A6E0FEA3E02D84
:1019C000F582EE3CF583E493FF69F90DBD00010C4F
:1019D000BC2FE5BDFFE29003A8E0FEA3E0F5828EF8
:1019E00083E49369700690031E04F022E490031EC2
:1019F000F0229001C2A3E0900379F09001C4A3E02B
:101A000090037AF09001BCA3E090037BF09001BEBC
:101A1000A3E090037CF09001C8A3E090037DF090D8
:101A200001CAA3E090037EF0902291740193900389
:101A30007FF0902293740193900380F0229003BE74
:101A4000E06044900006E0FEA3E0FFC39470EE94D3
:101A50001750069003C07426F0C3900009E09470FC
:101A6000900008E0941750129003C07427F0C3EF61
:101A70009470EE941750037428F0E49003BEF09035
:101A800003C0E0900329F022CBEFCBEB6401701789
:101A900012111DE0900371F0121131A3E090037256
:101AA000F0ECA3F0EDA3F0EB6402701712111DE04F
:101AB000900375F0121131A3E0900376F0ECA3F0DF
:101AC000EDA3F0229003BA1213A550309003BAE0B0
:101AD000FFEB1212231210C9E07021EB1212231235
:101AE00010C97401F0121152FFEB12134AC083C0E7
:101AF000829003BAE0D082D0831213AF229003BA4F
:101B00001213A550309003BAE0FFEB1212301210FE
:101B1000C9E07021EB1212301210C97401F01211D9
:101B200052FFEB121358C083C0829003BAE0D082F8
:101B3000D0831213AF229003A9E0FBA3E0FAA3E045
:101B4000F922E4F5DA75DA4043DA2075D74075DA20
:101B500058229003A2E0FF04F08F82758300229048
:101B600003A87401F022E92FF9E43AFA0219B575D5
:101B700020011229A353A87F122508122D0F122C21
:101B8000EE122CA643A880122C89EF24E0600A24D0
:101B900010700AC283C2828004D283D28212239937
:101BA000121E6180E2E4FFFE900003E0FDEEC39DA3
:101BB000501BEF1210A412129AEE1210A7E0FAA313
:101BC000E0D39DEA9C4003CFEECF0E80DB9001D0A6
:101BD000EFF022CAEFCAEAC39410501C900002E052
:101BE0006A60157F01122D007F03122C689000029D
:101BF000EAF09001CD7401F022900002747EF07F33
:101C000003122D009001CDE060147F01122C687F3B
:101C100001122954EF6007E49001CDF0A3F02241B6
:101C20000205004101D1004103A1004103A200428D
:101C3000031B000041031D0041031F0041031E0060
:101C40004103201000902EC5E4F0902ECDF0A3F0BB
:101C5000FFFEEE90216F93600974062F12138AEE37
:101C6000F00F0EEEB410EB22CBEFCBEBD3940A5077
:101C70001712128DE0701112128D7401F0121152B0
:101C8000FFEB12133C121AD322E4FD90031DE06017
:101C900011900321E0FE54F0FDEE540FF0E49003A8
:101CA0001DF0CFEDCF229003A37401F0A37403F0D5
:101CB000A37421F0122B4243A90875B80875F808DF
:101CC00022900290121ADF000000007E007F0A7D41
:101CD000007B017A0179D3021B1CEFD39403500DD2
:101CE00012122FF583E5822D1210CEE4F02275B288
:101CF0008E75B6F9E4F5B743B20143AA01022CC1CF
:101D0000EFD3940A500874D32F121290E4F02212E9
:101D100027AD9001D27401F002259BEE30E707C396
:101D2000E49FFFE49EFE220000000000000000008F
:101D300000000000000000000000000000000000A3
:101D40000000000000000000000000000000000093
:101D50000000000000000000000000000000000083
:101D60000000000000000000000000000000000073
:102FF000000000000000000000000000000000656C
:00000001FF
